:020000040800F2
:1000000080070020A90100086F300008912E000829
:100010006D300008F1140008B93600080000000037
:100020000000000000000000000000007F30000819
:10003000F3140008000000007D3000088130000843
:10004000C3010008C3010008C3010008C301000880
:10005000C3010008C3010008C3010008C301000870
:10006000C3010008C3010008C3010008C301000860
:10007000C3010008C3010008C3010008C301000850
:10008000C3010008C3010008C3010008C301000840
:10009000C3010008C3010008C3010008C301000830
:1000A000C3010008C3010008C3010008C301000820
:1000B00001310008C3010008C3010008C3010008A2
:1000C000C3010008C3010008C3010008C301000800
:1000D000C30100089D350008C3010008C3010008E2
:1000E000C3010008C3010008C301000800F002F8C2
:1000F00000F04AF80AA090E8000C82448344AAF178
:100100000107DA4501D100F03FF8AFF2090EBAE875
:100110000F0013F0010F18BFFB1A43F0010318473B
:10012000483B0000683B0000103A24BF78C878C103
:10013000FAD8520724BF30C830C144BF04680C60ED
:10014000704700000023002400250026103A28BF35
:1001500078C1FBD8520728BF30C148BF0B60704739
:10016000662903F0A184642900F05A8000207047BA
:100170001FB500F003FC04000020002103F066FB23
:10018000E0601FBD10B510BD00F0F8FC1146FFF790
:10019000EFFF03F0BDFA00F016FD03B4FFF7F2FF26
:1001A00003BC00F059FD000009488047094800479A
:1001B000FEE7FEE7FEE7FEE7FEE7FEE7FEE7FEE717
:1001C000FEE7FEE704480549054A064B7047000074
:1001D000FD300008ED0000088001002080070020AD
:1001E00080030020800300200FB47CB50C0009AA16
:1001F000009001D02044401E084B7B44694601908A
:10020000089800F09AFB05461CB10020694600F0F2
:10021000A7FB28467CBC5DF814FB00006D070000BE
:100220002DE9F0410646002410687529314616A5CF
:1002300010D0AFF30080002802DA404213A507E097
:1002400031688A0701D512A502E0490704D511A536
:10025000012401E0AFF3008000210A2206F1240707
:1002600009E0B0FBF2FCB0FBF2F302FB1C00303003
:1002700078541846491C0028F3D123462A463046B4
:10028000BDE8F04100F0EBB8000000002D000000D8
:100290002B000000200000002DE9F0474FF0000A7D
:1002A00089460446C0F820A02046E1688847002817
:1002B00076D0252806D0D4E901219047206A401C39
:1002C0002062F1E7E168204600258847C4F81CA0B9
:1002D00006460027C4F818A02A2E09D0304603F09D
:1002E00010FA38B304EB8708303EC8F8186019E0FC
:1002F00059F8041B204604EB87029161E1688847A6
:10030000012F064618D1E069002820DA25F02005E3
:100310001DE0D8F8180000EB800006EB40003038F4
:10032000C8F818002046E1688847064603F0E9F956
:100330000028EED1012F0AD02E2E08D12046E168E8
:1003400088477F1C0646022F45F02005C4DBA069C4
:10035000002803DA404245F00105A061E80701D01A
:1003600025F01005B6B1A6F14100192802D82036B3
:1003700045F400654A463146204625604D46FFF764
:10038000EFFE58B1012806D0ED1D25F0070000F161
:10039000080989E704E005F1040985E730468AE7A2
:1003A000206ABDE8F08710B5203AC0F00B80B1E8B4
:1003B0001850203AA0E81850B1E81850A0E818509A
:1003C000BFF4F5AF5FEA027C24BFB1E81850A0E8A3
:1003D000185044BF18C918C0BDE810405FEA827CBD
:1003E00024BF51F8043B40F8043B08BF7047D207D4
:1003F00028BF31F8023B48BF11F8012B28BF20F875
:10040000023B48BF00F8012B70474FF0000200B5D7
:10041000134694469646203922BFA0E80C50A0E827
:100420000C50B1F12001BFF4F7AF090728BFA0E8D5
:100430000C5048BF0CC05DF804EB890028BF40F8A1
:10044000042B08BF704748BF20F8022B11F0804FE3
:1004500018BF00F8012B70477047704770472DE9AF
:10046000F0470D4699469246044600F1240801687B
:10047000880604D5E06921F01001216000E0012028
:10048000A84201DD471B00E00027A1697A1902EBB1
:100490000900081AA0612078C00602D42046AFF3F4
:1004A0000080002608E0D4E901211AF806009047F0
:1004B000206A401C761C20624E45F4DB2078C00682
:1004C0000AD52046AFF3008006E0D4E901213020B0
:1004D0009047206A401C2062381EA7F10107F4DC17
:1004E00007E0D4E9012118F805009047206A401C74
:1004F0002062281EA5F10105F3DC2046AFF3008041
:100500002078000602D50220BDE8F0870120FBE735
:1005100070472DE9FF4F0C461E464FF0FF378BB05A
:10052000D2E90001DDF860800A908A46C1F30A55DD
:1005300005B93D46002108464FF00000BAF1000F12
:1005400000F4400005DA00EB80004FF4400101EABE
:1005500050004FEA9059B9F1010F00DDB9460A98F1
:1005600050EA4A000ED044F61050A5F2FF3545433C
:100570002F14B8F1000F1ED07542291E1EDDC9F1DF
:1005800000021CE0B8F1010F4FF0000001D0302153
:1005900003E0F24305E02154401CB042FBDB30464F
:1005A0000022002121540B99C1F80880C1E90020E4
:1005B0000FB0BDE8F08FBD1B6D1CDEE74A4600DAC8
:1005C000694206A800F064FA06AB93E8070003ABA3
:1005D00083E8070050460A9900F045FB8DE80700C4
:1005E000A0F500501F3800900398002D0ADD42F25C
:1005F0001F014A460844002303A90390684600F0FF
:10060000AEFD09E0A0F500504A461F38002303A9BB
:100610000390684600F0B8FD8DE807000004000C68
:1006200003D04FF0FF30410800E01046B8F1000F52
:1006300003D00022009215461EE0751E05D400F07E
:10064000A1F9303262556D1EF9D5B3460122084337
:1006500002D000227F1C04E02078302801D1002243
:100660007F1E002A099784D01DE0112D07DA00F0C3
:1006700089F9303262556D1C50EA0102F5D1084308
:1006800002D00098C8B10EE00021681E05E0235C8E
:10069000625C63542254401E491C8142F7DBAB4626
:1006A000A81B401E0990002004F80B000B98099A23
:1006B000C0F80880C0E9002B7AE711264FF0000847
:1006C00057E72DE9F04F88460446D21D22F0070176
:1006D00091B0D1E90001CDE90A0102F0EEFF024636
:1006E0000B98C00F01D02D2007E02068810701D5AD
:1006F0002B2002E0202101EAC000032A099001D04A
:10070000072A05DB03464146204600F081F90BE14C
:100710002078800601D5E06900E00620B8F1650F79
:10072000814606D0B8F1660F18D0B8F1670F70D1C6
:1007300031E00020B9F1110F009001DB112301E03D
:1007400009F101030AAA01A90CA8FFF7E2FEDDE9FD
:100750000C70002609F10105834647E001204B4655
:1007600000904FF000470AAA01A90CA8FFF7D1FE9C
:10077000DDE90DB00C995D46002610B909F10100C4
:100780000D18B9EB050003D4C0F1FF3609F10105DE
:10079000A5EB09002BE0B9F1010F01DA4FF00109D7
:1007A0000020B9F1110F0090484601DD112300E04F
:1007B00003460AAA01A90CA8FFF7ABFEDDE90C70FD
:1007C0004D4600268346207800070AD4AB4500DA60
:1007D0005D4601A8012D04DD411911F8011C3029E5
:1007E00007D04F4502DA17F1040F04DA01208246E0
:1007F0000FE06D1EEEE7002F02DCED1B3E4403E030
:10080000781CA84200DD7D1CB81B00F1010A4FF0E6
:1008100000472078000703D4AA4501DB4FF0FF3AD8
:100820000021B7F1004F0DF143088DF8431024D09B
:1008300002202B23002F01DA7F422D230A21021EE2
:10084000A0F1010000DC5FB197FBF1FC97FBF1F236
:1008500001FB1C7C17460CF1300C08F801CDEEE7CB
:10086000A8F1010003702188090501D5452100E0A8
:100870006521A0F1010800F8011C09980FA9A1EB5E
:100880000807FF1D00B10120411901EBEA70A169C1
:100890003844081A401EA0612078C00602D42046C1
:1008A000AFF30080099828B1D4E901219047206A6C
:1008B000401C20622078C00622D52046AFF300807D
:1008C0001EE0002E04DBB34502DD01A8805D00E0E0
:1008D0003020D4E901219047206A401C2062761C18
:1008E000AAF101005FEA000A0AD100F047F8C068E7
:1008F0000168405CD4E901219047206A401C2062D5
:10090000281EA5F10105DCDC07E0D4E9012118F877
:10091000010B9047206A401C2062381EA7F1010796
:10092000F3DC2046AFF30080032011B041E6000065
:1009300001694A1C02610878704700B58FB0CDE9A3
:1009400001310021059105497944CDE90310114693
:100950006846FFF7A1FC0FB000BD0000E5FFFFFFF8
:100960000A6802F8010B0A607047D1E900239A4235
:1009700002D2531C0B601070704700000048704793
:100980003C01002030B5B0F10A024FEA900E71F13F
:1009900000034EEA817EB0EB0E0061EB91014FEA5D
:1009A000101E4EEA017E10EB0E0041EB11114FEAD2
:1009B000102E4EEA016E10EB0E0041EB11214FEAB2
:1009C000104E4EEA014E10EB0E0041EB1141401863
:1009D00041F100014FEAD00040EA41704FEAD101F5
:1009E00010EB80054FEA810444EA907444EB010463
:1009F0006D1944EB0404521BA3414FF0000348BFA0
:100A00000A3200D530BD401C41F1000130BD00006C
:100A10002DE9F0411F46044603260168072A01F428
:100A2000006004DB08B116A505E016A503E008B1D7
:100A300015A500E015A521F010002060A069C01EDA
:100A4000A0610FB1401EA0612046AFF300804FB1FE
:100A5000D4E9012138469047206A401C2062C01C1E
:100A6000206206E0206AFAE7D4E9012115F8010BBB
:100A70009047761EF8D22046AFF30080BDE8F081A3
:100A80004E414E006E616E00494E4600696E660032
:100A90002DE9F047814616468AB0354878440DC89E
:100AA0008DE80D0032487844801C03AC0DC884E802
:100AB0000D0041F69B300844372190FBF1F290FB8A
:100AC000F1F5A5F1800501FB12041B3C02D564423F
:100AD000012000E00020DFF898A080460027FA44BB
:100AE000AAF1BE0A0EE0E0070AD03246684607EBDC
:100AF000470101230AEB810100F046FB8DE8070066
:100B000064107F1C002CEED1194F7F44AE3F19E0DA
:100B1000E80715D007EB04100DF1180A90E80E0055
:100B20008AE80E00C068F04201D198190890324658
:100B3000012306A903A800F027FB03AB83E8070005
:100B40006D10641C002DE3D14FF00103324669465D
:100B5000B8F1000F03A802D000F001FB01E000F0A3
:100B600013FBC9E90001C9F808200AB0BDE8F08705
:100B7000B0310000004870471C0100207546FFF7A7
:100B8000F9FFAE4605006946534620F0070085464A
:100B900018B020B5FFF716FBBDE820404FF0000667
:100BA0004FF000074FF000084FF0000B21F0070155
:100BB000AC46ACE8C009ACE8C009ACE8C009ACE898
:100BC000C0098D46704710B50446AFF3008020463B
:100BD000BDE81040FFF7E1BA4FF0013C50F8042B9C
:100BE00051F8043B9A4221D1A2EB0C03934313EA40
:100BF000CC1317D150F8042B51F8043B9A4215D16D
:100C0000A2EB0C03934313EACC130BD150F8042B43
:100C100051F8043B9A4209D1A2EB0C03934313EA27
:100C2000CC13DBD04FF00000704700BFD01A01BAE0
:100C3000B1FA81F101F0180122FA01F0CB40C1F1C3
:100C40002001DBB2C0B2C01A2CFA01F3D11A9143D1
:100C500011EAC311E6D1704701491820ABBEFEE787
:100C60002600020070475FEA400C08BF91F0000FB9
:100C70004FEA8C234FEAC12243EA51514FEA1C50FC
:100C800018BF00F5F0404FEA300018BF41F00041B6
:100C90005FEA6C5C00F02980BCF1FF3F08BF40F0C8
:100CA00080407047130C06BF12044FF0100C4FF039
:100CB000000C130E04BF12020CF1080C130F04BF3A
:100CC00012010CF1040C930F04BF92000CF1020C02
:100CD000D30F04BF52000CF1010C11464FF000027B
:100CE000A0F11F00A0EB0C00704711F0004F08BFEF
:100CF000704731F000413FF4D5AF0B0C06BF09043B
:100D00004FF0100C4FF0000C0B0E04BF09020CF159
:100D1000080C0B0F04BF09010CF1040C8B0F04BF6E
:100D200089000CF1020CCB0F04BF49000CF1010C3F
:100D3000CCF12003A0EB0C0022FA03F302FA0CF230
:100D400041EA030100F10100704720F07F4C80EA86
:100D5000030023F07F47ACEB070303F57C5300F05F
:100D6000004003F1FF032DE980494FEA154B09B418
:100D70004FEA144325EA0B4E24EA03480FF20426F7
:100D800006EB132749083E785FEA320203FB066749
:100D9000C7F5000707FB06F64FEA54374FEAD64679
:100DA00006F1020607FB066CCCF1005C4FEA1C471B
:100DB0002CEA074C07FB06F40CFB06F504EB154682
:100DC0004FEA961634BF00204FF000404FEAD1376B
:100DD00006FB07FC4FEA1C4C0CFB0BF7D21B03FB7A
:100DE0000CF761EB07010CFB0EF7B0EB074072EB61
:100DF00017420CFB08F734BFA2EB0742B2EB0742E5
:100E000061EB17414FEA0C444FEA910706FB07FCE0
:100E10004FEA1C4C0CFB0BF7B0EBC74072EB5732A0
:100E200003FB0CF734BFA2EBC742B2EBC74261EB46
:100E300057310CFB0EF7B0EBC70072EB57720CFB8F
:100E400008F734BFA2EBC702B2EBC70261EB5771E0
:100E5000039F4FEA816141EA921104EBCC044FEA0F
:100E6000D1374FEA826206FB07FC42EA90124FEA52
:100E700080604FEA1C4C0CFB0BF7D21B03FB0CF7FA
:100E800061EB07010CFB0EF7B0EB074072EB17426A
:100E90000CFB08F734BFA2EB0742B2EB074261EB51
:100EA00017414FEA8C554FEA910704EB9C2406FB4F
:100EB00007FC4FEA1C4C0CFB0BF7B0EBC74072EB86
:100EC000573203FB0CF734BFA2EBC742B2EBC74269
:100ED00061EB57310CFB0EF7B0EBC70072EB5772AA
:100EE0000CFB08F734BFA2EBC702B2EBC70261EB01
:100EF000577115EB4C254FEA816141EA92114FEA97
:100F000082624FEAD13742EA901206FB07FC44F1B5
:100F100000044FEA80604FEA1C4C0CFB0BF7D21B1D
:100F200003FB0CF761EB07010CFB0EF7B0EB07407E
:100F300072EB17420CFB08F734BFA2EB0742B2EB8F
:100F4000074261EB174115EB1C154FEA813141EA6D
:100F500092414FEA823242EA90424FEA80304FEAB1
:100F60000C7644F1000448EA03434EEA0B484FF084
:100F7000000EB2EB080C71EB030724BF6246394642
:100F80004EEB0E0E4FF0000B0018524149414BEB57
:100F90000B0BB2EB080C71EB03077BF1000B24BFCA
:100FA000624639464EEB0E0E4FF0000B00185241D0
:100FB00049414BEB0B0BB2EB080C71EB03077BF1D8
:100FC000000B24BF624639464EEB0E0E51EA020773
:100FD00018BF46F0010616EB0E7655F1000254F1EB
:100FE000000103D5BDE88901BDE80088BDE889019D
:100FF000BDE80048B619524141EB0101A3F10103DC
:10100000704780807F7E7D7C7B7A79787776767575
:101010007473727171706F6E6E6D6C6C6B6A6A69ED
:101020006868676666656464636362616160605F87
:101030005F5E5E5D5D5C5C5B5B5A5A595958585700
:101040005756565555555454535352525251515068
:1010500050504F4F4F4E4E4D4D4D4C4C4C4B4B4BBB
:101060004A4A4A4949494848484747474746464601
:10107000454545444444444343434342424242413C
:101080004141002B9C4630D477002BD01CB54FEA51
:10109000370703B44FF010004FF01001BAF1000F02
:1010A00006D0BCF1000FDCBF40F0080040F00801A2
:1010B0004FF000000FBCBDE810400BF1010BBBF17D
:1010C000010F08BF5FEA170722BF12F1010211F1F9
:1010D00001014FF0004143F1000300F0004043EAFA
:1010E00000007047F9D35708D0E746EA064613F1E7
:1010F000400F4FEA16461FDD13F1200FDFBF1643E6
:101100000A46002120335B42BED0C3F1200746EAE5
:10111000064602FA07F74FEA164646EA0706C3F103
:10112000200722FA03F201FA07F721FA03F14FF040
:10113000000342EA0702A7E746EA020646EA064635
:101140004FEA164646EA0106BCBF46EA0646360C9A
:101150004FF000034FF000024FF0000194E72DE93B
:10116000804C9A46934670B491E8380007C831EA3B
:10117000400C48BF34EA430C03D5FFF7E6FDFFF708
:1011800080FFF0BCBDE8008C2DE9804C9A46934668
:1011900070B491E8380007C810F0804F08BF13F012
:1011A000804F03D100F005F8FFF76BFFF0BCBDE8FE
:1011B000008C20F07F4780EA030023F07F4C07EB90
:1011C0000C03A3F57C5300F00040A3F1FE0392F062
:1011D000000F00F0B38095F0000F00F077802DE94C
:1011E00001494FEA11404FEA144621EA004800FB4A
:1011F00006FC24EA064708FB06F607FB08F800FB96
:1012000007F718EB06484CEB164C4FEA124B18EB5D
:1012100007484FEA15464CEB174022EA0B4E0BFBF2
:1012200006FC25EA06470EFB06F607FB0EFE0BFB47
:1012300007F71EEB064E4CEB164C4FF000061EEB6C
:10124000074E4CEB174B18EB0B0840F1000018EB66
:101250000E0B58EB000840F100008F1A4FF0000110
:101260003CBFC943661B14BFB5EB040C00213CBF57
:10127000C943F61B4FEA17444EEA8E0E27EA04458F
:101280004FEA1C4704FB07622CEA074C05FB07F7F3
:101290000CFB05F604FB0CFC16EB074642EB174271
:1012A00016EB0C4642EB1C421BEB060658EB020207
:1012B000414146EA9E0601D5BDE80189B619524171
:1012C00041EB0101A3F10103BDE801894FEA144597
:1012D0004FEA114724EA054621EA074C05FB07F4CB
:1012E00006FB07F70CFB06F105FB0CFC11EB0741B5
:1012F00044EB17444FEA124711EB0C4144EB1C44FA
:1013000022EA074C05FB07F206FB07F70CFB06F683
:1013100005FB0CFC16EB074642EB174216EB0C469E
:1013200042EB1C456A1854F1000148BF7047B619DA
:10133000524141EB0101A3F10103704795F0000F09
:1013400037D04FEA11424FEA144721EA024624EA15
:10135000074C02FB07F106FB07F70CFB06F402FB48
:101360000CFC14EB074441EB17414FEA154714EB13
:101370000C4441EB1C4125EA074C02FB07F506FB38
:1013800007F70CFB06F602FB0CFC16EB074645EBD9
:10139000174516EB0C4645EB1C42121951F10001A2
:1013A00048BF7047B619524141EB0101A3F1010357
:1013B00070474FEA14454FEA114724EA054621EAEF
:1013C000074C05FB07F106FB07F70CFB06F24FF095
:1013D000000605FB0CFC12EB074241EB174112EB38
:1013E0000C4251EB1C4148BF7047921841EB010180
:1013F000A3F101037047000070B5044600688168DE
:10140000C943C90717D1816821F00101816000F04B
:1014100029FC05460AE000BF00F024FC401B02281E
:1014200004D920688068C043C00706D0206880685F
:10143000C043C007F0D0002070BDA06A40F010008B
:10144000A062E06A40F00100E062012070BD00008F
:10145000F8B500260446009600688168C943C907AC
:101460002DD0816841F0010181601648164900685D
:10147000B0FBF1F000E0401E00900028FBD100F02E
:10148000F1FB054616E000BF00F0ECFB401B022814
:1014900010D920688068C043C0070BD0A06A40F014
:1014A0001000A062E06A40F00100E06284F824606D
:1014B0000120F8BD20688068C043C007E4D1002047
:1014C000F8BD00001000002040420F0010B5074892
:1014D00000F0ECF90A21054800F04AF908B10020B3
:1014E00010BD024800F086F880B210BD1400002044
:1014F000FEE7704772B6FEE7F8B50024009490F856
:1015000024202546012A12D0012280F824204A688E
:101510001F23072A0DD20668776B521E02EB820248
:1015200093409F430B6893401F43776319E0022069
:10153000F8BD06680D2A0AD2376BD21F02EB820271
:1015400093409F430B6893401F43376309E0F76A5A
:101550000D3A02EB820293409F430B6893401F4376
:10156000F7620A68072306680A2A0AD3F7680A3A64
:1015700002EB420293409F438B6893401F43F76006
:1015800008E0376902EB420293409F438B68934027
:101590001F4337610A68102A01D0112A20D1124B4B
:1015A00002689A4217D193681B0219D4936843F4D6
:1015B000000393600968102912D10C490C4A09688C
:1015C000B1FBF2F101EB8101490000E0491E0091FD
:1015D0000029FBD104E0816A41F0200181620124ED
:1015E00080F824502046F8BD00240140100000205F
:1015F00040420F000068C06C704700002DE9F041C8
:101600004FF0000704003D467ED0A06A002628B9AE
:10161000E66284F82460204600F07EF82046FFF75A
:10162000EBFEA16AC90600D420B1A06A40F0100008
:10163000A06269E0A16A21F4885141F00201A1622F
:101640006268E169237B0A4347EA43010A43A168D0
:101650004FF48077B94209D0012907D05FF000012B
:1016600094F814C0BCF1010F02D00AE03946F7E744
:10167000F3B1A36A43F02003A362E36A43F00103DA
:10168000E3622368D3F804C02CF4694C4CEA010CE3
:10169000C3F804C021688B68DFF870C003EA0C034C
:1016A00013438B60A168B9420BD0012909D00CE02B
:1016B000DFF85CC0A3690CEB43330B4343F40061D8
:1016C000DFE7218A0D05A5F580152168CB6A23F493
:1016D00070032B43CB62216889680E4B19409142FD
:1016E00008D1E662A16A21F0020141F00101A16284
:1016F000BDE8F081A06A20F0020040F01000A06276
:10170000E06A40F00100E0620120F1E7FDF7E1FF4F
:1017100000E0FFFFFE0E1FFF00B585B00021009125
:1017200001910291039100680E49884218D10E4838
:10173000816941F400718161816901F40071049152
:10174000816941F0080181618069694600F0080003
:1017500004900220009003200190044800F088F9D2
:1017600005B000BD0024014000100240000C014003
:101770002DE9F84300270D460446009700F072FA61
:10178000804620688168C90508D5A06A40F020001D
:10179000A06284F824700120BDE8F8834168C9057F
:1017A00003D4C06A10F4700F2AD0022000F0F8FAB7
:1017B0003B490968B1FBF0F62068036939490B42DF
:1017C0004FEA61014FEAA1121FD1C3684FEA611CC1
:1017D00013EA0C0F19D103690B4225D1C0681042DE
:1017E00022D1142023E0681C0AD02DB100F03AFA6F
:1017F000A0EB0800A84203D920680068800725D51F
:10180000206800688007EED52DE003690B4202D105
:10181000C168114206D0026923490A4206D1C06854
:10182000084203D1542002E0292000E0FC20464376
:10183000009816E0681C11D02DB100F013FAA0EB4F
:101840000800A8420AD90098B04207D2A06A40F026
:101850000400A06284F8247003209DE70098401CD7
:101860000090B042E6D321686FF012000860A06AD1
:1018700040F40070A06220688068C0F342400728EE
:101880000CD1207B50B9A06A20F48070A062A06ABD
:10189000C00403D4A06A40F00100A06200207BE7EE
:1018A00010000020244992244992240070B5044677
:1018B00090F8240001280DD0012084F8240020464F
:1018C000FFF7C6FD02004FF0000005D084F82400A9
:1018D000104670BD022070BDA16A40F201239943F9
:1018E00041F48071A1621F4D23681F49AB4218D19A
:1018F0000E6816F4702F14D0A66A46F48016A662FD
:101900000E68760505D5A66A26F4005646F480567C
:10191000A662A66AF6040AD5E66A26F00606E6621C
:1019200006E0A66A26F48016A6625E68E9E7E06231
:1019300084F824006FF00200186020688368C3F305
:101940004243072B05D1A84208D1096811F4702F32
:1019500004D0816841F480118160B9E7816841F465
:10196000A001F9E7002801400424014010B590F8D7
:1019700021100022022905D00421816380F8202053
:10198000012010BD01680B6823F00E030B60016895
:101990000B6823F001030B6090F84030C46B012109
:1019A00001FA03F3636080F8211080F820201046CC
:1019B00010BD000010B590F821100024022903D0BA
:1019C0000421816301243DE001680A6822F00E02CF
:1019D0000A6001680A6822F001020A601A4A016876
:1019E000914201D1012121E0174A1432914201D1E3
:1019F00010211BE0144A2832914201D1891515E0CB
:101A0000114A3C32914201D189140FE00E4A503202
:101A1000914202D14FF4803108E00B4A6432914286
:101A200002D14FF4801101E04FF08071064A083A6C
:101A30005160012180F82110002180F82010416BB5
:101A400001B18847204610BD0800024070B5044629
:101A500000F008F90546601C02D0044800780444F0
:101A600000F000F9401BA042FAD370BD0400002032
:101A70002DE9F84FDFF8B8910024A9F1040B2346B3
:101A80000F2709F1040AABF1040EC9E00125A540B6
:101A90002A40AA427DD1674ED1F804C0ACEB0608BB
:101AA000B44532D014DCBCF1030F3AD009DCBCF1F0
:101AB000000F2AD0BCF1010F1CD0BCF1020F31D1B4
:101AC0001DE0BCF1110F17D0BCF1120F2AD119E0A3
:101AD000B8F5881F19D006DCB8F5803F15D0B8F5E9
:101AE000801F1FD111E0B8F5001F0ED0B8F5041FFC
:101AF00018D10AE0CB6815E0CB681B1D12E0CB685B
:101B000008330FE0CB680C330CE08B682BB1012B52
:101B10004FF0080303D0456104E0042302E00561AF
:101B200000E00023FF2A01D8064601E000F1040688
:101B30004FEA840501D9A5F12005D6F8008007FAFF
:101B400005FC28EA0C0803FA05F548EA0508C6F87A
:101B500000804D68ED0062D5374DAE6946F0010654
:101B6000AE61AD6924F0030605F001050095334D23
:101B700006EB050CDCF80850A607360F07FA06F846
:101B800025EA0805DFF8B880404503D14FF000088A
:101B900017E044E0DFF8AC80404502D14FF0010887
:101BA0000FE0DFF8A480404502D14FF0020808E0C2
:101BB000DFF89880404502D14FF0030801E04FF074
:101BC000040808FA06F848EA0508CCF808804D68C9
:101BD000D9F80060ED024D4601D5164300E096436A
:101BE0002E604D68DAF80060AD02554601D5164307
:101BF00000E096432E604D68DBF80060AD035D4663
:101C000001D5164300E096432E604D68DEF8006073
:101C1000ED03754601D5164300E096432E60641C23
:101C20000D682A46E5407FF431AFBDE8F88F00002B
:101C300008040140000011100010024000000140A3
:101C400000080140000C0140001001400014014058
:101C50008068084000D0012070470AB101617047D8
:101C60000904FBE701488068704700000400002079
:101C700002488168027811448160704704000020A6
:101C8000074810B5016841F010010160032000F021
:101C900075F80F2000F006F800F024F8002010BDC1
:101CA0000020024070B50D4D04464FF47A7128783B
:101CB000B1FBF0F00A490968B1FBF0F000F0A4FBB9
:101CC00048B9102C07D200222146501E00F036F8E9
:101CD00000206C6070BD012070BD00000400002079
:101CE000100000200C4808B5816941F001018161B4
:101CF000816901F001010091C16941F08051C16128
:101D0000C06900F0805000900448416821F0E06113
:101D100041F00071416008BD001002400000014028
:101D2000002809DB00F01F020121914040098000DA
:101D300000F1E020C0F8001170470000F0B40E4B35
:101D40001B680C46C3F30223C3F10705042D00D919
:101D50000425191D072901D2002300E0DB1E0126FE
:101D600006FA05F1491E214099409E40761E164014
:101D70003143F0BC01F0B5BC0CED00E0064900F0C9
:101D8000070208684FF6FF03184040EA0220034AA2
:101D900010430860704700000CED00E00000FA05F9
:101DA00010B501460020234C012922D0022939D048
:101DB00010291DD161682268D20119D51E48C1F3CE
:101DC0008342C903805C0AD561681B4AC1F3404164
:101DD000921E515C194AB2FBF1F1484301E01849E7
:101DE00048436168490203D440000321B0FBF1F08D
:101DF00010BD226AC2F30121012903D1920701D546
:101E0000C80310BD022905D1626A920702D549F6BE
:101E1000404010BD0329FCD121688903F9D54FF258
:101E2000244010BD00F02AF96168C1F38131491CDA
:101E30004900DBE700100240AA3B000800127A00CC
:101E400000093D002DE9F84305460078354CC007F0
:101E500054D0E0690026C00008D4E06940F080500A
:101E6000E061E069012600F0805000902E48016892
:101E7000C90512D40168804641F480710160FFF702
:101E8000F1FE074605E000BFFFF7ECFEC01B64282B
:101E900023D8D8F80000C005F6D5206A10F44070A9
:101EA00021D0A98801F4407181421CD0206A1F49C9
:101EB000012220F440700A6000220A602062C007FC
:101EC00011D0FFF7CFFE074641F2883808E000BF87
:101ED000FFF7C8FEC11B414502D90320BDE8F883C6
:101EE000206A8007F4D5206A696820F440700843AE
:101EF00020621EB1E06920F08050E0612878800700
:101F000005D56068A96820F44040084360602878DF
:101F1000C00605D56068E96820F480000843606069
:101F20000020DBE700100240007000404004424205
:101F30002DE9F0470F46050061D0434E306800F0B0
:101F40000700B84209D2306820F0070038433060FB
:101F5000306800F00700B84251D128683B4C810737
:101F600012D5400703D5606840F4E06060602878CF
:101F7000000703D5606840F4605060606068A9683D
:101F800020F0F000084360602878C00728D0686817
:101F9000012810D02168022810D0890700292EDAE4
:101FA000616821F0030101436160FFF75BFE804639
:101FB00041F288390DE021688903EFE78901EDE7F7
:101FC000FFF750FEA0EB0801494502D90320BDE808
:101FD000F0876068696800F00C00B0EB810FEFD10A
:101FE000306800F00700B8420BD9306820F00700D5
:101FF00038433060306800F00700B84201D001205B
:10200000E5E72878400705D56068E96820F4E060D6
:10201000084360602878000706D56068296920F4C5
:10202000605040EAC100606000F038F86168084A1A
:10203000C1F30311515CC8400649086006480068B6
:10204000FFF730FE0020C2E70020024000100240EF
:10205000BA3B000810000020080000200448054991
:1020600000684968044AC1F30221515CC8407047C6
:102070001000002000100240CA3B00080448054937
:1020800000684968044AC1F3C221515CC8407047E6
:102090001000002000100240CA3B00080E4A5168A0
:1020A0000E4801F00C03042B11D0082B0FD10C4863
:1020B000C1F38343C903C05C0AD55168084AC1F320
:1020C0004041921E515C054A5043B0FBF1F070470D
:1020D00004494843704700000010024000127A0093
:1020E000983B000800093D002DE9F84F040070D02E
:1020F0002078C04DC00749D06868C0F3810001282E
:1021000007D06868C0F38100022809D16868C0035D
:1021100006D52868800339D560680028E7D035E007
:102120006068B0F5803F0BD010B1B0F5A02F11D092
:10213000286820F480302860286820F4802002E09D
:10214000286840F480302860606890B1FFF78AFD0D
:1021500006460AE0286840F480202860F0E700BFC7
:10216000FFF780FD801B642873D828688003F7D5AB
:102170000CE0FFF777FD064605E000BFFFF772FDB4
:10218000801B6428F0D828688003F7D420789A4E02
:1021900080074FF001094FF0000839D5686810F04A
:1021A0000C0F07D06868C0F38100022809D1686865
:1021B000C00306D42868800714D52069012808D1F7
:1021C00010E02069B0B1C6F80090FFF74BFD07465C
:1021D00005E00AE1FFF746FDC01B0228C4D82868C5
:1021E0008007F7D52868616920F0F80040EAC1004F
:1021F00028600DE0C6F80080FFF734FD074604E0D4
:10220000FFF730FDC01B022823D828688007F7D4C9
:10221000207800072CD57948A169D9B1C0F8009081
:10222000FFF720FD074604E0FFF71CFDC01B022856
:102230000FD8686A8007F7D571484FF4FA510068E3
:10224000B0FBF1F0009000BF0098411E0091FAD25F
:102250000EE080E0C0F80080FFF704FD074604E0D0
:10226000FFF700FDC01B022875D8686A8007F7D405
:102270002078400760D5E8690027C00008D4E869E5
:1022800040F08050E861E869012700F0805000903C
:102290005C480168C90513D40168834641F4807124
:1022A0000160FFF7DFFC824606E000BFFFF7DAFCC3
:1022B000A0EB0A0064284ED8DBF80000C005F5D575
:1022C000E06801280AD008B1052813D0286A20F058
:1022D00001002862286A20F0040002E0286A40F029
:1022E00001002862E06841F2883B98B1FFF7BAFC30
:1022F00082460BE0286A40F004002862EEE700BF47
:10230000FFF7B0FCA0EB0A0159455AD8286A8007AC
:10231000F6D50CE0FFF7A6FC824605E0FFF7A2FC2D
:10232000A0EB0A0159454CD8286A8007F6D41FB1A2
:10233000E86920F08050E861E06988B36968C1F31A
:102340008101022944D00228C6F8608004D0FFF73A
:1023500089FC044638E034E0FFF784FC074604E0DB
:10236000FFF780FCC01B02282BD828688001F7D417
:10237000206AB0F5803F05D16868A16820F400307C
:1023800008436860D4E908010843696821F47411BE
:1023900008436860C6F86090FFF764FC044606E0F6
:1023A00025E000BFFFF75EFC001B022809D8286863
:1023B0008001F7D51BE000BFFFF754FC001B02288B
:1023C00002D90320BDE8F88F28688001F4D40EE01C
:1023D0000128F7D06868226A00F48031914204D164
:1023E000616A00F47010884201D00120EAE7002001
:1023F000E8E7000000100240000042428004424230
:10240000100000200070004010B5401EB0F1807F29
:1024100001D3012010BD4FF0E02460610F2160174F
:1024200001F05FF90020A06107202061002010BDAD
:102430007047704770B590F83C20012A26D00124DF
:1024400080F83C40022280F83D2003685A689D686D
:1024500022F070060A6832435A600D4B02689A42B5
:1024600008D0B2F1804F05D00A4B9A4202D00A4BF5
:102470009A4204D1496825F080031943916080F89D
:102480003D40002180F83C10084670BD022070BD20
:10249000002C0140000400400008004010B504007A
:1024A00003D094F83D0010B107E0012010BD0020DA
:1024B00084F83C00204600F01FF8022084F83D001C
:1024C000211D206800F022FE012084F8460084F8D7
:1024D0003E0084F83F0084F8400084F8410084F80E
:1024E000420084F8430084F8440084F8450084F8EE
:1024F0003D00002010BD000008B50068B0F1804F1D
:1025000012D10A48C16941F00101C161C0690022CC
:1025100000F00100009001211C20FFF70FFCBDE836
:1025200008401C20FFF7FCBB08BD00000010024063
:1025300070B5044690F83C000025012817D001260C
:1025400084F83C60022084F83D002068826822F014
:10255000770222F47F4282600868502838D00DDC70
:1025600020284FD005DC90B3102811D14AE002207A
:1025700070BD302846D040280AD13BE060282FD0DB
:1025800070280DD0B0F5805F03D0B0F5005F12D099
:10259000012584F83D60002084F83C00284670BD89
:1025A000CB68D1E90121206800F0F9FD206881683D
:1025B00041F0770109E0CB68D1E90121206800F002
:1025C000EEFD2068816841F480418160E1E719E017
:1025D000CA684968206800F097FE5021206806E02C
:1025E000CA684968206800F0A0FE6021206800F0F9
:1025F000E0FDCEE7CA684968206800F085FE40210A
:102600002068F4E7226801461046F0E770472DE99C
:10261000F04104460068C66805694FF00007A90745
:1026200013D5B10711D5F91E01610120207720686B
:1026300080698007204602D0FFF7E8FF04E000F041
:10264000AFF8204600F041F92777680716D57007E4
:1026500014D521686FF004000861022020772068FB
:10266000806910F4407F204602D0FFF7CFFF04E0DE
:1026700000F096F8204600F028F92777280715D5AE
:10268000300713D521686FF0080008610420207717
:102690002068C0698007204602D0FFF7B7FF04E03A
:1026A00000F07EF8204600F010F92777E80616D5EE
:1026B000F00614D521686FF010000861082020771B
:1026C0002068C06910F4407F204602D0FFF79EFFCB
:1026D00004E000F065F8204600F0F7F82777E807F7
:1026E00008D0F00706D021686FF00100086120468D
:1026F00000F03AF9280608D5300606D521686FF0B3
:10270000800008612046FFF793FE680608D5700632
:1027100006D521686FF040000861204600F025F9D9
:10272000A8060AD5B00608D521686FF02000086118
:102730002046BDE8F041FFF77CBEBDE8F081000017
:1027400000B585B0002100910191029103910068CC
:10275000B0F1804F1BD10F48816941F004018161C4
:102760008069694600F0040004904FF40040009036
:102770000220019003900848FFF77AF90748416862
:1027800021F4407141F0E06141F48071416005B095
:1027900000BD0000001002400008014000000140A0
:1027A000704770B5044690F83C0000260D4601289D
:1027B0000FD0012084F83C006AB1042A1DD0082AF9
:1027C0002FD00C2A3FD00126002084F83C00304650
:1027D00070BD022070BD206800F0F4FC20688169A3
:1027E00041F0080181612068816921F00401816163
:1027F000206881692A69114311E0206800F00AFD10
:102800002068816941F4006181612068816921F457
:1028100080618161206881692A6941EA02218161C0
:10282000D2E7206800F022FD2068C16941F008016C
:10283000C1612068C16921F00401C1612068C169DA
:102840002A69114311E0206800F03CFD2068C1694D
:1028500041F40061C1612068C16921F48061C161F6
:102860002068C1692A6941EA0221C161ACE710B55B
:10287000040003D094F83D0010B107E0012010BD22
:10288000002084F83C00204600F01EF8022084F866
:102890003D00211D206800F039FC012084F846002D
:1028A00084F83E0084F83F0084F8400084F841003A
:1028B00084F8420084F8430084F8440084F845001A
:1028C00084F83D00002010BD7047704710B50446E5
:1028D000022249B104290ED0082913D094F84100EE
:1028E000012816D0012010BD94F83E000128F9D12E
:1028F00084F83E200FE094F83F000128F2D184F8DC
:102900003F2008E094F840000128EBD184F84020F3
:1029100001E084F841200122206800F033FC0F49D7
:102920002068884203D1426C42F40042426420682D
:10293000884208D0B0F1804F05D00949884202D0C2
:102940000849884204D1816801F00701062903D0B3
:10295000016841F001010160002010BD002C014020
:1029600000040040000800407047704770477047FF
:10297000F8B5016804460868CA684B6910F00F0F83
:102980004FF0000559D003F0010602F49077374369
:1029900065D0C10705D0D10503D5616C41F00101B7
:1029A0006164410705D5D90703D0616C41F002018C
:1029B0006164810705D5D90703D0616C41F004013A
:1029C0006164010707D502F02001314303D0616C37
:1029D00041F008016164616C00293AD0800604D599
:1029E000900602D5204600F0E1FC20684069616C49
:1029F000C0F38010090700D460B3204600F0AFFC9C
:102A000020684069400621D52068143050E8001F36
:102A100021F0400140E80012002AF5D1E06BA8B196
:102A20006D494163E06BFEF7C5FF002811D0E06BF4
:102A3000416B01B0BDE8F040084783060FD593060F
:102A40000DD52046BDE8F84000F0B0BC2046FFF7A9
:102A50008EFFF8BD2046FFF78AFF6564F8BD266B40
:102A60002023012E7CD1C6067AD5D60678D50868F3
:102A70004868009048694FF00206400640D5E16B77
:102A8000086840680004000CE8D0A28D8242E5D9B5
:102A9000E085886920282DD020680C3050E8001F80
:102AA00021F4807140E80012002AF5D1206814302A
:102AB00050E8001F21F0010140E80012002AF5D182
:102AC0002068143050E8001F21F0400140E8001257
:102AD000002AF5D184F84230256320680C3050E894
:102AE000001F21F0100140E80012002AF5D1E06B30
:102AF000FEF73CFF6663A08DE18D401A81B22AE0AB
:102B0000A08DE18D401A81B2E08D0028A6D0002969
:102B1000A4D022680C3252E8000F20F4907042E8F2
:102B20000007002FF5D12068143050E8002F22F064
:102B3000010240E80027002FF5D184F842302563D8
:102B400020680C3050E8002F22F0100240E80023EB
:102B5000002BF5D166632046FFF708FFF8BDFFE7BD
:102B600005062BD5150629D594F841002128F5D165
:102B7000A068B0F5805F01D12069B0B1206A411C26
:102B80002162216800784860E08C401E0004000C3F
:102B9000E084E3D12068C16821F08001C160206831
:102BA000C16841F04001C160D8E7206A0088C0F3E5
:102BB00008004860206A801C2062E5E74006CDD509
:102BC0005006CBD5CA68204622F04002CA6084F87D
:102BD000413000F0ECF8C1E74F33000870B5040055
:102BE00004D094F84100002510B106E0012070BD2A
:102BF00084F84050204600F023F8242084F8410057
:102C00002068C16821F40051C160204600F030FC0A
:102C10002068016921F4904101612068416921F037
:102C20002A0141612068C16841F40051C1606564B6
:102C3000202084F8410084F842006563002070BDC4
:102C400070B586B0002400940194029403942B4E36
:102C500003682B49022003222A4DB34229D18B69F4
:102C600043F480438B618B6903F4804304938B6945
:102C700043F004038B618969039201F0040104911C
:102C80000102CDE9001069462846FEF7F1FE28153D
:102C9000CDE90004694628460294FEF7E9FE0022C9
:102CA00011462520FFF74AF82520FFF739F806B02E
:102CB00070BD154EB342FAD1CB6943F40033CB61FA
:102CC000CB6903F4003304938B6943F004038B61F5
:102CD0008969039201F0040104910421CDE90010F7
:102CE00069462846FEF7C4FE0820CDE9000469467F
:102CF00028460294FEF7BCFED9E7000000380140E8
:102D000000100240000801400044004070472DE9D7
:102D1000F843044690F84100984616460D46202890
:102D200002D00220BDE8F88385B17EB10020606446
:102D3000212084F84100FEF795FFA6848146E684B1
:102D4000A0682027B0F5805F02D003E00120E9E70A
:102D5000206910B12E4600250EE000260CE08021EF
:102D6000204600F0E1FBA8B9C6B116F8010B2168B6
:102D70004860E08C401EE084E08C4B464FF000023F
:102D8000CDF800800028EAD14FF04001204600F045
:102D9000CBFB40B184F841700320C3E735F8020B48
:102DA000C0F30800E3E784F841700020BAE77047F9
:102DB0002DE9F041254C00254FF480762A46314616
:102DC0002046FEF74AFF022000F046F80122314675
:102DD0002046FEF742FF0A2000F03EF8002231466E
:102DE0002046FEF73AFFFEF73DFF0646184F04E087
:102DF000FEF738FF801B0A2812D808212046FEF76C
:102E000027FF0028F4D0FEF72DFF06460BE0012037
:102E10006D1C00F021F8FEF725FF801B642802D905
:102E20003846BDE8F08108212046FEF711FF012851
:102E3000EDD0284600F058FD064900F069FDBDE8D8
:102E4000F0414FF0FF3100F063BE0000000C014084
:102E5000000080BF96430B3D10B54FF0E023996909
:102E6000094A0A4C1268B2FBF4F24243002007E020
:102E70009869884201D8081A02E05C69201A08445F
:102E80009042F5D310BD00001000002040420F001A
:102E9000FEE700003EB5002411480094019402941E
:102EA0000E498460016004730475012505614FF4C7
:102EB00060214460C161FEF7A1FB08B1FEF71AFB77
:102EC0000920CDE90005694602940548FEF714FB88
:102ED000002801D0FEF70EFB3EBD0000002401409B
:102EE0001400002070B586B000241C4800940194A2
:102EF00002940394816941F020018161816901F0AC
:102F000020010491816941F004018161816901F02E
:102F100004010491816941F0080181618069012205
:102F200000F008000E4E1502049029463046FEF7C8
:102F300094FE0820CDE90004694630460294FEF76D
:102F400097FD01210320CDE90210CDE9005169462A
:102F50003046FEF78DFD06B070BD00000010024047
:102F6000000C014010B58EB0002407940894099419
:102F70000A940B941C2168460C94FDF746FA1E48EF
:102F80004FF0804101604721C0E901144FF6FF7105
:102F9000C0E9031480218161FFF780FA08B1FEF7D0
:102FA000A9FA4FF48050079007A91348FFF7C0FA19
:102FB00008B1FEF79FFA1048FFF759FC08B1FEF779
:102FC00099FA0B940BA90C480C94FFF733FA08B14B
:102FD000FEF790FA6020CDE90004029400226946D1
:102FE00005480494FFF7DDFB08B1FEF783FA0248B9
:102FF000FFF7A6FB0EB010BD440000200C4810B532
:103000000A4901604FF4E1314160002181600C22E6
:10301000C160C0E904128161C161FFF7DFFD0028D2
:1030200003D0BDE81040FEF765BA10BD003801407E
:103030008C0000200C4810B50A4901604FF4E131C2
:103040004160002181600C22C160C0E904128161ED
:10305000C161FFF7C3FD002803D0BDE81040FEF7B3
:1030600049BA10BD00440040D4000020FEE7FEE74E
:103070000149096848637047440000207047704761
:10308000FEF7F6BD30B593B028216846FDF7BDF9CF
:1030900014210AA8FDF7B9F9002501200F95109514
:1030A0001195010412958DE8230004904FF4E0106F
:1030B000CDE90810022407946846FFF715F808B117
:1030C00072B6FEE70AA90F2081E831004FF4806054
:1030D000CDE90D0502210AA8FEF72AFF08B172B654
:1030E000FEE74FF4004011900F940FA8FEF7AAFEE0
:1030F000002801D072B6FEE713B030BD7047000063
:103100000148FFF784BA000044000020F0B50268CF
:10311000194B1A4C1A4D4FF08047984205D0B842CF
:1031200003D0A04201D0A84203D122F070064A6821
:103130003243984205D0B84203D0A04201D0A84201
:1031400003D122F44074CA6822434C6922F0800201
:10315000224302608A68C2620A688262984201D190
:1031600009690163012141610169C90703D001694E
:1031700021F001010161F0BD002C0140000400407C
:103180000008004010B501F01F030121046A9940B6
:103190008C430462016A9A401143016210BD10B56C
:1031A000846842EA032224F47F440A432243826073
:1031B00010BD826822F070020A4342F0070181606C
:1031C0007047000030B5036A026A22F00102026211
:1031D0004268846924F073050C682C4323F00205CF
:1031E0008B682B430A4DA8420BD123F00805CB680E
:1031F00022F440722B434D6923F0040315438A697E
:103200002A434260846149684163036230BD000023
:10321000002C014030B5026A036A23F010030362F8
:10322000436884690D6824F4E64444EA05248D6803
:1032300022F0200242EA05120B4DA8420ED1CD68C1
:1032400022F0800242EA05124D6923F4406343EA0A
:1032500085038D6922F0400243EA8503436084615F
:1032600049688163026230BD002C014030B5036AB9
:10327000026A22F4807202624268C46923F4007315
:1032800024F073050C682C438D6843EA05230C4D2C
:10329000A8420ED1CD6823F4006343EA05234D69AB
:1032A00022F4405242EA05128D6923F4806342EA17
:1032B00005124260C4614968C163036230BD000009
:1032C000002C014030B5046A026A22F48052026286
:1032D0004268C3690D6823F4E64343EA05238D6819
:1032E00024F4005444EA0534064DA84204D14D6943
:1032F00022F4804242EA85124260C3614968016457
:10330000046230BD002C014010B5036A046A24F049
:1033100001040462846924F0F00444EA021423F0F6
:103320000A020A438461026210BD10B5036A046A8E
:1033300024F010040462846923F0A00324F4704490
:1033400044EA023243EA01118261016210BD10B504
:10335000406A0021C185C184FFF709FB10BD0168E7
:103360000C3151E8002F22F4907241E80023002B29
:10337000F5D10168143151E8002F22F0010241E833
:103380000023002BF5D1016B012909D101680C3113
:1033900051E8002F22F0100241E80023002BF5D164
:1033A000202180F8421000210163704708B590F891
:1033B0004210222901D0022008BD82684FF48053B8
:1033C0009A4201D1016921B1816A9A421BD04AB166
:1033D0000AE00268816A5268C2F308020A80816AC0
:1033E000891C08E0026972B10268526802F07F022B
:1033F0000A70816A491C8162C18D491E0904090C49
:10340000C18503D01BE002685268F1E70168CA6811
:1034100022F02002CA600168CA6822F48072CA6081
:1034200001684A6922F001024A61202180F84210B5
:1034300000214163026B012A03D0FFF767FC0020E3
:1034400008BD016301680C3151E8002F22F0100221
:1034500041E80023002BF5D101680A68D20602D5A5
:103460000A6849680091818DFFF780FAE7E700005C
:1034700070B5044600680169E26821F440511143C7
:1034800001612169A0680843616908432168CA682D
:1034900041F20C639A430243CA6020684169A26901
:1034A00021F44071114341611E492068884202D1D4
:1034B000FEF7E4FD01E0FEF7D1FD00EBC00101EBFA
:1034C0000012606864218000B2FBF0F3B3FBF1F3FB
:1034D0006FF018067343B2FBF0F5B2FBF0F605EBA4
:1034E0008305322303EB0515B5FBF1F5B6FBF1F6C9
:1034F00005F0F00505EB0615B2FBF0F6B2FBF0F0B7
:10350000B0FBF1F06FF01802504306EB800003EBC4
:103510000010B0FBF1F0216800F00F002844886033
:1035200070BD0000003801402DE9F8439846174669
:103530000D460446089E24E0701C22D0FEF792FB44
:10354000A0EB0800B0421AD8CEB12068C168490784
:1035500017D5802D15D0402D13D00168C943090718
:103560000FD401680025406800902046FFF7F7FE61
:103570000820606484F840500120BDE8F8830320EF
:10358000FBE72068006835EA000004D00020B8425C
:10359000D2D00020F1E70120F9E700000148FFF751
:1035A000E7B900008C00002000B58BB000F06AF98C
:1035B000CDE9000106A2202102A8FCF715FE82B287
:1035C0004FF0FF3302A90448FFF7A1FB0BB000BD89
:1035D000252E32660D0A00008C00002000B589B04F
:1035E000034607A220216846FCF7FEFD82B24FF099
:1035F000FF3369460548FFF78AFB09B000BD0000AC
:103600004C696768743A25640D0A00008C0000203C
:1036100000B585B0142206A16846FCF7C4FE4FF041
:10362000FF33112269460748FFF771FB05B000BD63
:10363000FD000E0104E58589E7BABFE8BF87E4BA5B
:10364000AE000000D400002000B585B0142206A111
:103650006846FCF7A8FE4FF0FF3311226946074881
:10366000FFF755FB05B000BDFD000E0104E585899F
:10367000E7BABFE8BF87E69A97000000D4000020B1
:1036800000B585B0142206A16846FCF78CFE4FF009
:10369000FF33112269460748FFF739FB05B000BD2B
:1036A000FD000E0104E8B79DE7A6BBE8BF87E8BFB1
:1036B00091000000D4000020FEE7490050EAC1203C
:1036C00018BF04204A0D18BF40F0010040F2FF72FD
:1036D000B2EB515F08BF40F00200012808BF05208F
:1036E00070470907090E002804DB00F1E02080F88C
:1036F0000014704700F00F0000F1E02080F8141D66
:10370000704730380A2801D20120704700207047E6
:103710000EB5FEF7B5FAFFF7B5FCFFF7E3FBFFF7D1
:10372000B9FBFFF71FFCFFF785FCFFF767FC0021E3
:103730004248FFF7CBF8DFF808910127414C4FF0E2
:10374000020A4FF0030BE846002600BFFDF7BEFE5D
:1037500005462078052831D2DFE800F00308111C67
:103760002A0040F2653085420DD827E0B5F5407F4C
:1037700001D8267022E0B5F5D36F0FD81EE040F2D5
:103780003460854201D2277018E040F6CB108542A4
:1037900012D813E040F66710854202D284F800A0E8
:1037A0000CE040F6FE40854208D90420207005E078
:1037B00040F69A40854201D284F800B0D9E900125F
:1037C000D9F80800CDE900120290217838F81100EC
:1037D000FFF74EFC2078A178014302D0042804D0E2
:1037E00005E0FFF731FFA77005E0E178E1B1401E89
:1037F000032801D2A670E6702846FFF7EFFEFFF718
:10380000D7FA0546B0F5000F09DBFFF7CDFE0E48ED
:10381000854201DA617861B1854200DB66704FF460
:10382000FA70FEF713F991E7FFF7F2FEE770A67062
:10383000E2E7FFF725FF6770F1E700004400002092
:103840008C3B0008000000200000A04010B50029BB
:103850000AD00878002807D005487844FDF7BCF95D
:10386000002801D0002010BD0248784410BD00009F
:103870002E040000260400000808A0F500114FEAFD
:103880003101704743004FEAD30C4FEA3C0C4340F0
:103890001FBF40070CF1605113F0FE4F70471CF042
:1038A000006F03D100200CF0004170470CF0004382
:1038B00043EA507010B540EACC0000F0AAF800BF0F
:1038C000000000924FEA0001FFF7D6BF4FF0004121
:1038D0004FF00000A1F5002170470000014800F002
:1038E000E5B800BF0000C07FB0FA80F310FA03F221
:1038F000C3F19D030AD0D90501EB1220530638BF4E
:10390000704700F1010008BF20F00100704700007F
:103910004FF47F0C1CEAD0121EBF1CEAD11392EAAE
:103920000C0F93EA0C0F00F0478090EA010F48BF9C
:1039300042F480724FF0004C4CEA00204CEA012126
:1039400002EB0302A0FB0113A2F50002002918BF3D
:1039500043F001035B0028BF4FEA330342EB2242EE
:103960005FEA132C4CEBC2502EBFBCEB436FB2F599
:103970007C0F70474FEA036CBCF1004F08BF20F08A
:103980000100B2F57C0F38BF70470BD582F0FF0203
:1039900012F5803FC8BF704700F1C040D8BF00F0AB
:1039A0000040704700F5000C5FEA4C0C48BF7047C0
:1039B000B0F1C04000F073B890EA010F0CEAD113E7
:1039C00048BF42F48072624538BF634504D280EA42
:1039D000010000F00040704710B500F01AF800BF79
:1039E0008900013E00F007B800F009B85FEA410C19
:1039F0005FEA1C6C08D080EA010000F050B85FEA72
:103A0000400C5FEA1C6CF6D14FF00040A0F580003E
:103A100070470EF1020E2EF0030E5EF8044B2442A6
:103A200004D44FEA4102B2F17F4F11D84FEA40036C
:103A3000B3F17F4F0CD80ED14FEAD07CB2F17F4F5B
:103A40000CEB4C0C0CF1020C08BF4CEBD17C04E0ED
:103A50004FF0080C01E04FEAD17C0CEB4C0324FA48
:103A600003F404F00704B4F1040C06D20EEB840C4A
:103A7000BDE810404CF0010C6047DFE80CF007088F
:103A800002024FF00040A0F5800010BD0846420041
:103A900018BFD2F1807288BF00F0004010BDFF2136
:103AA00041EAD050C0057047FCF70BBE0CF00F0385
:103AB000092B08BF082000F051800A2B0BD0082BDF
:103AC00018BF704708BF1CF0400F0AD04FF000002D
:103AD0004FF0000170471CF0400F18BF4FF000403E
:103AE00070471CF0100F08D020F0704300F07F42A8
:103AF00042EAD3014FEA4370704700F0604021F082
:103B00007F4242EA000201F07F4040EA7270704753
:103B10004FF0FF0212EAD0521CBF92F0FF038B421B
:103B2000C2BFD14200EBC1507047002A0AD0002B1F
:103B30000BD0002900F00040A4BF40F0FE4040F44C
:103B40000000704700F00040704743024FF00B0C3C
:103B500018BF4CF0806C7FF4C1AE70471CF4801F1E
:103B600011D01CF4E02F03D06FEACC31490070472C
:103B70004FF04050EFF3008222F0704242EA000220
:103B800082F3008870474FF000007047FFFF00C0CD
:103B90000080004000000102020304050607080936
:103BA0000A0B0C0D0E0F101001020203040506078C
:103BB00008090A0B0C0D0E0F101000000000000089
:103BC00000000102030406070809000000000102CA
:103BD0000304000002400000000000A000000000FC
:103BE00005400000000000C8000000000C4000007C
:103BF0000000409C00000000194000000020BCBEF6
:103C00000000000034400000BFC91B8E000000040B
:103C1000B5400000504BCFD06607E2CF0100000056
:103C20006C4100003E8251AADFEEA7340100000083
:103C3000D9420000DCB5A0E23A301F97FFFFFFFF3A
:103C4000B4450000FD25A0C8E9A3C14FFFFFFFFF59
:103C5000FF3F00000000008000000000FF3F000068
:103C60000000008000000000A43C000800000020CC
:103C70001400000028010008B83C000814000020CF
:103C80006C070000440100081C0000004300000015
:103C9000F8FFFFFF0C0000000E0000000F00000006
:103CA0002E000000000000000100000010000000D5
:083CB0000000000000127A0080
:04000005080000ED02
:00000001FF
