:020000040800F2
:10000000F006002089010008FB18000861170008AD
:10001000F918000865030008531C000800000000E0
:10002000000000000000000000000000FF180008B1
:100030006703000800000000FD180008011900080F
:10004000A3010008A3010008A3010008A301000800
:10005000A3010008A3010008A3010008A3010008F0
:10006000A3010008A3010008A3010008A3010008E0
:10007000A3010008A3010008A3010008A3010008D0
:10008000A3010008A3010008A3010008A3010008C0
:10009000A3010008A3010008A3010008A3010008B0
:1000A000A3010008A3010008A3010008A3010008A0
:1000B000A3010008A3010008A3010008A301000890
:1000C000A3010008A3010008A3010008A301000880
:1000D000A3010008A3010008A3010008A301000870
:1000E000A3010008A3010008A301000800F002F822
:1000F00000F03AF80AA090E8000C82448344AAF188
:100100000107DA4501D100F02FF8AFF2090EBAE885
:100110000F0013F0010F18BFFB1A43F0010318473B
:10012000001C0000201C0000103A24BF78C878C1D1
:10013000FAD8520724BF30C830C144BF04680C60ED
:10014000704700000023002400250026103A28BF35
:1001500078C1FBD8520728BF30C148BF0B60704739
:100160001FB51FBD10B510BD00F058F81146FFF7C0
:10017000F7FF01F07FFD00F076F803B4FFF7F2FF20
:1001800003BC00F07DF8000009488047094800479B
:10019000FEE7FEE7FEE7FEE7FEE7FEE7FEE7FEE737
:1001A000FEE7FEE704480549054A064B7047000094
:1001B0007D190008ED000008F0000020F006002086
:1001C000F0020020F00200204FF0000200B51346BC
:1001D00094469646203922BFA0E80C50A0E80C5067
:1001E000B1F12001BFF4F7AF090728BFA0E80C5018
:1001F00048BF0CC05DF804EB890028BF40F8042B11
:1002000008BF704748BF20F8022B11F0804F18BF7D
:1002100000F8012B7047704770477047754600F033
:100220002BF8AE4605006946534620F00700854688
:1002300018B020B5FFF7B6FFBDE820404FF000062C
:100240004FF000074FF000084FF0000B21F00701BE
:10025000AC46ACE8C009ACE8C009ACE8C009ACE801
:10026000C0098D46704710B50446AFF300802046A4
:10027000BDE81040FFF781BF004870478C000020A8
:1002800001491820ABBEFEE72600020070470000BF
:1002900070B5044600688168C943C90717D18168F1
:1002A00021F00101816000F0BDFB05460AE000BFBE
:1002B00000F0B8FB401B022804D920688068C043C6
:1002C000C00706D020688068C043C007F0D0002077
:1002D00070BDA06A40F01000A062E06A40F001002A
:1002E000E062012070BD0000F8B5002604460096CB
:1002F00000688168C943C9072DD0816841F00101B8
:100300008160164816490068B0FBF1F000E0401E1D
:1003100000900028FBD100F085FB054616E000BFE9
:1003200000F080FB401B022810D920688068C04381
:10033000C0070BD0A06A40F01000A062E06A40F055
:100340000100E06284F824600120F8BD2068806824
:10035000C043C007E4D10020F8BD00001000002019
:1003600040420F00FEE7704772B6FEE7F8B5002482
:10037000009490F824202546012A12D0012280F80A
:1003800024204A681F23072A0DD20668776B521E65
:1003900002EB820293409F430B6893401F437763B5
:1003A00019E00220F8BD06680D2A0AD2376BD21F69
:1003B00002EB820293409F430B6893401F433763D5
:1003C00009E0F76A0D3A02EB820293409F430B6803
:1003D00093401F43F7620A68072306680A2A0AD374
:1003E000F7680A3A02EB420293409F438B689340BE
:1003F0001F43F76008E0376902EB420293409F43D6
:100400008B6893401F4337610A68102A01D0112A74
:1004100020D1124B02689A4217D193681B0219D45B
:10042000936843F4000393600968102912D10C49C2
:100430000C4A0968B1FBF2F101EB8101490000E0CF
:10044000491E00910029FBD104E0816A41F020019E
:100450008162012480F824502046F8BD0024014028
:100460001000002040420F000068C06C7047000080
:100470002DE9F0414FF0000704003D467ED0A06A10
:10048000002628B9E66284F82460204600F07EF851
:100490002046FFF7FDFEA16AC90600D420B1A06A7C
:1004A00040F01000A06269E0A16A21F4885141F097
:1004B0000201A1626268E169237B0A4347EA4301C2
:1004C0000A43A1684FF48077B94209D0012907D0C7
:1004D0005FF0000194F814C0BCF1010F02D00AE0F3
:1004E0003946F7E7F3B1A36A43F02003A362E36A56
:1004F00043F00103E3622368D3F804C02CF4694C91
:100500004CEA010CC3F804C021688B68DFF870C0A6
:1005100003EA0C0313438B60A168B9420BD0012995
:1005200009D00CE0DFF85CC0A3690CEB43330B434C
:1005300043F40061DFE7218A0D05A5F580152168E8
:10054000CB6A23F470032B43CB62216889680E4B7E
:100550001940914208D1E662A16A21F0020141F0FE
:100560000101A162BDE8F081A06A20F0020040F024
:100570001000A062E06A40F00100E0620120F1E7B3
:10058000FDF7E1FF00E0FFFFFE0E1FFF00B585B0A5
:100590000021009101910291039100680E49884267
:1005A00018D10E48816941F400718161816901F4BB
:1005B00000710491816941F0080181618069694697
:1005C00000F00800049002200090032001900448ED
:1005D00000F032F905B000BD0024014000100240D7
:1005E000000C01402DE9F84300270D460446009712
:1005F00000F018FA804620688168C90508D5A06A0D
:1006000040F02000A06284F824700120BDE8F88347
:100610004168C90503D4C06A10F4700F2AD00220C3
:1006200000F090FA3B490968B1FBF0F620680369D5
:1006300039490B424FEA61014FEAA1121FD1C36849
:100640004FEA611C13EA0C0F19D103690B4225D143
:10065000C068104222D1142023E0681C0AD02DB1BA
:1006600000F0E0F9A0EB0800A84203D92068006878
:10067000800725D5206800688007EED52DE0036946
:100680000B4202D1C168114206D0026923490A42D5
:1006900006D1C068084203D1542002E0292000E0BE
:1006A000FC204643009816E0681C11D02DB100F0E4
:1006B000B9F9A0EB0800A8420AD90098B04207D2C5
:1006C000A06A40F00400A06284F8247003209DE733
:1006D0000098401C0090B042E6D321686FF01200F1
:1006E0000860A06A40F40070A06220688068C0F3CF
:1006F000424007280CD1207B50B9A06A20F48070BA
:10070000A062A06AC00403D4A06A40F00100A06205
:1007100000207BE710000020244992244992240005
:1007200070B5044690F8240001280DD0012084F80B
:1007300024002046FFF7D8FD02004FF0000005D04E
:1007400084F82400104670BD022070BDA16A40F2FA
:100750000123994341F48071A1621F4D23681F4911
:10076000AB4218D10E6816F4702F14D0A66A46F466
:100770008016A6620E68760505D5A66A26F4005690
:1007800046F48056A662A66AF6040AD5E66A26F002
:100790000606E66206E0A66A26F48016A6625E6891
:1007A000E9E7E06284F824006FF002001860206836
:1007B0008368C3F34243072B05D1A84208D10968D7
:1007C00011F4702F04D0816841F480118160B9E781
:1007D000816841F4A001F9E70028014004240140A8
:1007E00010B5044690F82400012807D0012084F8B1
:1007F00024002046FFF74CFD10B107E0022010BD99
:10080000A16A21F4885141F00101A162002184F81C
:10081000241010BD70B5044600F004F90546601CB4
:1008200002D004480078044400F0FCF8401BA042C9
:10083000FAD370BD040000202DE9F84FDFF8B8911D
:100840000024A9F1040B23460F2709F1040AABF198
:10085000040EC9E00125A5402A40AA427DD1674E79
:10086000D1F804C0ACEB0608B44532D014DCBCF1BE
:10087000030F3AD009DCBCF1000F2AD0BCF1010F04
:100880001CD0BCF1020F31D11DE0BCF1110F17D00B
:10089000BCF1120F2AD119E0B8F5881F19D006DC77
:1008A000B8F5803F15D0B8F5801F1FD111E0B8F51D
:1008B000001F0ED0B8F5041F18D10AE0CB6815E070
:1008C000CB681B1D12E0CB6808330FE0CB680C33FC
:1008D0000CE08B682BB1012B4FF0080303D045616E
:1008E00004E0042302E0056100E00023FF2A01D8B0
:1008F000064601E000F104064FEA840501D9A5F19E
:100900002005D6F8008007FA05FC28EA0C0803FA4F
:1009100005F548EA0508C6F800804D68ED0062D587
:10092000374DAE6946F00106AE61AD6924F00306AD
:1009300005F001050095334D06EB050CDCF8085079
:10094000A607360F07FA06F825EA0805DFF8B8808B
:10095000404503D14FF0000817E044E0DFF8AC80D9
:10096000404502D14FF001080FE0DFF8A480404578
:1009700002D14FF0020808E0DFF89880404502D12C
:100980004FF0030801E04FF0040808FA06F848EABF
:100990000508CCF808804D68D9F80060ED024D4696
:1009A00001D5164300E096432E604D68DAF80060EA
:1009B000AD02554601D5164300E096432E604D68C2
:1009C000DBF80060AD035D4601D5164300E09643B9
:1009D0002E604D68DEF80060ED03754601D51643C4
:1009E00000E096432E60641C0D682A46E5407FF4C3
:1009F00031AFBDE8F88F000008040140000011107D
:100A0000001002400000014000080140000C0140BD
:100A100000100140001401400AB10161704709044F
:100A2000FBE70000014880687047000004000020D8
:100A300002488168027811448160704704000020F8
:100A4000074810B5016841F010010160032000F073
:100A500067F80F2000F006F800F024F8002010BD21
:100A60000020024070B50D4D04464FF47A7128788D
:100A7000B1FBF0F00A490968B1FBF0F000F086FB29
:100A800048B9102C07D200222146501E00F028F849
:100A900000206C6070BD012070BD000004000020CB
:100AA000100000200C4808B5816941F00101816106
:100AB000816901F001010091C16941F08051C1617A
:100AC000C06900F0805000900448416821F0E06166
:100AD00041F00071416008BD00100240000001407B
:100AE000F0B40E4B1B680C46C3F30223C3F1070599
:100AF000042D00D90425191D072901D2002300E087
:100B0000DB1E012606FA05F1491E214099409E4050
:100B1000761E16403143F0BC01F09CB80CED00E0AD
:100B2000064900F0070208684FF6FF03184040EA44
:100B30000220034A10430860704700000CED00E0FB
:100B40000000FA0510B501460020234C012922D0EF
:100B5000022939D010291DD161682268D20119D526
:100B60001E48C1F38342C903805C0AD561681B4AF1
:100B7000C1F34041921E515C194AB2FBF1F1484366
:100B800001E0184948436168490203D44000032149
:100B9000B0FBF1F010BD226AC2F30121012903D19B
:100BA000920701D5C80310BD022905D1626A9207D8
:100BB00002D549F6404010BD0329FCD121688903C4
:100BC000F9D54FF2244010BD00F01AF96168C1F365
:100BD0008131491C4900DBE700100240F81C000885
:100BE00000127A0000093D002DE9F843054600781F
:100BF000354CC00754D0E0690026C00008D4E06935
:100C000040F08050E061E069012600F080500090E3
:100C10002E480168C90512D40168804641F48071EC
:100C20000160FFF7FFFE074605E000BFFFF7FAFE91
:100C3000C01B642823D8D8F80000C005F6D5206A68
:100C400010F4407021D0A98801F4407181421CD079
:100C5000206A1F49012220F440700A6000220A60C5
:100C60002062C00711D0FFF7DDFE074641F2883849
:100C700008E000BFFFF7D6FEC11B414502D90320A3
:100C8000BDE8F883206A8007F4D5206A696820F4FB
:100C90004070084320621EB1E06920F08050E0619E
:100CA0002878800705D56068A96820F4404008438B
:100CB00060602878C00605D56068E96820F4800087
:100CC000084360600020DBE7001002400070004035
:100CD000400442422DE9F0470F46050061D0434EE3
:100CE000306800F00700B84209D2306820F00700F1
:100CF00038433060306800F00700B84251D12868AE
:100D00003B4C810712D5400703D5606840F4E06092
:100D100060602878000703D5606840F46050606028
:100D20006068A96820F0F000084360602878C00778
:100D300028D06868012810D02168022810D08907BF
:100D400000292EDA616821F0030101436160FFF799
:100D500069FE804641F288390DE021688903EFE79A
:100D60008901EDE7FFF75EFEA0EB0801494502D9D6
:100D70000320BDE8F0876068696800F00C00B0EB04
:100D8000810FEFD1306800F00700B8420BD930680E
:100D900020F0070038433060306800F00700B842A8
:100DA00001D00120E5E72878400705D56068E968AB
:100DB00020F4E060084360602878000706D560688A
:100DC000296920F4605040EAC100606000F028F812
:100DD0006168084AC1F30311515CC84006490860C4
:100DE00006480068FFF73EFE0020C2E700200240F0
:100DF00000100240081D000810000020080000201C
:100E00000448054900684968044AC1F3C221515C9D
:100E1000C84070471000002000100240181D000854
:100E20000E4A51680E4801F00C03042B11D0082B18
:100E30000FD10C48C1F38343C903C05C0AD5516884
:100E4000084AC1F34041921E515C054A5043B0FB31
:100E5000F1F0704704494843704700000010024019
:100E600000127A00E61C000800093D002DE9F84F49
:100E7000040070D02078C04DC00749D06868C0F326
:100E80008100012807D06868C0F38100022809D1D9
:100E90006868C00306D52868800339D560680028D3
:100EA000E7D035E06068B0F5803F0BD010B1B0F509
:100EB000A02F11D0286820F480302860286820F402
:100EC000802002E0286840F480302860606890B19B
:100ED000FFF7A8FD06460AE0286840F48020286055
:100EE000F0E700BFFFF79EFD801B642873D82868D9
:100EF0008003F7D50CE0FFF795FD064605E000BF3F
:100F0000FFF790FD801B6428F0D828688003F7D491
:100F100020789A4E80074FF001094FF0000839D52C
:100F2000686810F00C0F07D06868C0F381000228D1
:100F300009D16868C00306D42868800714D52069E1
:100F4000012808D110E02069B0B1C6F80090FFF781
:100F500069FD074605E00AE1FFF764FDC01B0228B2
:100F6000C4D828688007F7D52868616920F0F800A0
:100F700040EAC10028600DE0C6F80080FFF752FD8E
:100F8000074604E0FFF74EFDC01B022823D828685F
:100F90008007F7D4207800072CD57948A169D9B10A
:100FA000C0F80090FFF73EFD074604E0FFF73AFD6A
:100FB000C01B02280FD8686A8007F7D571484FF424
:100FC000FA510068B0FBF1F0009000BF0098411E9C
:100FD0000091FAD20EE080E0C0F80080FFF722FD19
:100FE000074604E0FFF71EFDC01B022875D8686A9B
:100FF0008007F7D42078400760D5E8690027C00053
:1010000008D4E86940F08050E861E869012700F001
:10101000805000905C480168C90513D4016883467C
:1010200041F480710160FFF7FDFC824606E000BFDD
:10103000FFF7F8FCA0EB0A0064284ED8DBF80000AC
:10104000C005F5D5E06801280AD008B1052813D0FD
:10105000286A20F001002862286A20F0040002E0DB
:10106000286A40F001002862E06841F2883B98B1AC
:10107000FFF7D8FC82460BE0286A40F004002862A3
:10108000EEE700BFFFF7CEFCA0EB0A0159455AD8A6
:10109000286A8007F6D50CE0FFF7C4FC824605E01D
:1010A000FFF7C0FCA0EB0A0159454CD8286A80071D
:1010B000F6D41FB1E86920F08050E861E06988B398
:1010C0006968C1F38101022944D00228C6F8608012
:1010D00004D0FFF7A7FC044638E034E0FFF7A2FC99
:1010E000074604E0FFF79EFCC01B02282BD82868A7
:1010F0008001F7D4206AB0F5803F05D16868A16807
:1011000020F4003008436860D4E9080108436968A6
:1011100021F4741108436860C6F86090FFF782FC00
:10112000044606E025E000BFFFF77CFC001B022818
:1011300009D828688001F7D51BE000BFFFF772FCD3
:10114000001B022802D90320BDE8F88F286880011F
:10115000F4D40EE00128F7D06868226A00F48031E8
:10116000914204D1616A00F47010884201D00120DC
:10117000EAE70020E8E700000010024000004242D9
:1011800080044242100000200070004010B5401E54
:10119000B0F1807F01D3012010BD4FF0E0246061E9
:1011A0000F21601700F056FD0020A061072020618C
:1011B000002010BD70B590F83C20012A26D00124F3
:1011C00080F83C40022280F83D2003685A689D6800
:1011D00022F070060A6832435A600D4B02689A4248
:1011E00008D0B2F1804F05D00A4B9A4202D00A4B88
:1011F0009A4204D1496825F080031943916080F830
:101200003D40002180F83C10084670BD022070BDB2
:10121000002C0140000400400008004010B504000C
:1012200003D094F83D0010B107E0012010BD00206C
:1012300084F83C00204600F01FF8022084F83D00AE
:10124000211D206800F09CFB012084F8460084F8F2
:101250003E0084F83F0084F8400084F8410084F8A0
:10126000420084F8430084F8440084F8450084F880
:101270003D00002010BD000000B585B000210091A8
:101280000191029103910068B0F1804F1FD1114884
:10129000C16941F00101C161C16901F0010104911D
:1012A000816941F0080181618069694600F00800A8
:1012B0000490082000900848FFF7BEFA07484168EC
:1012C00021F4407141F0E06141F48071416005B06A
:1012D00000BD000000100240000C01400000014071
:1012E00070B5044690F83C000025012817D001266F
:1012F00084F83C60022084F83D002068826822F077
:10130000770222F47F4282600868502838D00DDCD2
:1013100020284FD005DC90B3102811D14AE00220DC
:1013200070BD302846D040280AD13BE060282FD03D
:1013300070280DD0B0F5805F03D0B0F5005F12D0FB
:10134000012584F83D60002084F83C00284670BDEB
:10135000CB68D1E90121206800F05BFB206881683F
:1013600041F0770109E0CB68D1E90121206800F064
:1013700050FB2068816841F480418160E1E719E019
:10138000CA684968206800F0F9FB5021206806E02F
:10139000CA684968206800F02FFC6021206800F0CE
:1013A00042FBCEE7CA684968206800F0E7FB4021AD
:1013B0002068F4E7226801461046F0E72DE9F04185
:1013C000054690F83C0000260C46012810D001206C
:1013D00085F83C0072B1042A1CD0082A2CD00C2AB3
:1013E00050D00126002085F83C003046BDE8F08151
:1013F0000220FBE7D4E90012E368286800F0D0FB84
:101400002868816921F00C01816128688169A268DE
:1014100011430FE0D4E90012E368286800F0FEFBF6
:101420002868816921F44061816128688169A26826
:1014300041EA02218161D5E72868D4E9002C277BA5
:10144000036A016A21F480710162C16923F40073A7
:1014500021F0030141EA0C0121F0F00C39074FF4AF
:1014600000774CEA116107EA02221A43C161026265
:101470002868C16921F00C01C1612868C169A268AE
:1014800011432BE02868D4E90021E768036AD0F80B
:1014900020C02CF4805CC0F820C0D0F81CC023F41D
:1014A00000532CF4407C4CEA012121F4704C4FF69F
:1014B000FF7101EA07314FF4005741EA0C0107EAD6
:1014C00002321A43C16102622868C16921F4406195
:1014D000C1612868C169A26841EA0221C16181E74E
:1014E00010B5040003D094F83D0010B107E00120CE
:1014F00010BD002084F83C00204600F01EF80220B9
:1015000084F83D00211D206800F03AFA012084F89B
:10151000460084F83E0084F83F0084F8400084F8D8
:10152000410084F8420084F8430084F8440084F8C1
:10153000450084F83D00002010BD704700B585B01F
:10154000002100910191029103910068B0F1804F58
:101550001BD10F48816941F00401816180696946AE
:1015600000F0040004904FF400400090022001902D
:1015700003900848FFF760F90748416821F440717B
:1015800041F0E06141F48071416005B000BD0000B0
:1015900000100240000801400000014070B5044600
:1015A00090F83C0000260D4601280FD0012084F859
:1015B0003C006AB1042A1DD0082A2FD00C2A3FD043
:1015C0000126002084F83C00304670BD022070BD2A
:1015D000206800F031FA2068816941F008018161DA
:1015E0002068816921F004018161206881692A698C
:1015F000114311E0206800F047FA2068816941F446
:10160000006181612068816921F4806181612068C5
:1016100081692A6941EA02218161D2E7206800F0EC
:101620005FFA2068C16941F00801C1612068C169A1
:1016300021F00401C1612068C1692A69114311E0E8
:10164000206800F079FA2068C16941F40061C16145
:101650002068C16921F48061C1612068C1692A697B
:1016600041EA0221C161ACE710B5040003D094F84F
:101670003D0010B107E0012010BD002084F83C00BF
:10168000204600F01EF8022084F83D00211D20684D
:1016900000F076F9012084F8460084F83E0084F8D2
:1016A0003F0084F8400084F8410084F8420084F848
:1016B000430084F8440084F8450084F83D0000208D
:1016C00010BD704710B50446022249B104290ED05E
:1016D000082913D094F84100012816D0012010BD2C
:1016E00094F83E000128F9D184F83E200FE094F8E8
:1016F0003F000128F2D184F83F2008E094F8400030
:101700000128EBD184F8402001E084F84120012237
:10171000206800F071F90F492068884203D1426CBB
:1017200042F4004242642068884208D0B0F1804F01
:1017300005D00949884202D00849884204D181680D
:1017400001F00701062903D0016841F001010160A1
:10175000002010BD002C01400004004000080040A3
:10176000FEE700003EB50024114800940194029465
:101770000E498460016004730475012505614FF40E
:1017800060214460C161FEF773FE08B1FEF7ECFD15
:101790000920CDE90005694602940548FEF7E6FDFB
:1017A000002801D0FEF7E0FD3EBD0000002401400E
:1017B0001400002030B585B0002000900190029008
:1017C00003901648816941F020018161816901F02F
:1017D00020010491816941F008018161816901F072
:1017E00008010491816941F004018161806901224D
:1017F00000F004000A4D1402049021462846FFF729
:101800000BF901210320CDE90210CDE90041694621
:101810002846FFF711F805B030BD00000010024067
:10182000000C014030B591B000240B940C940D9441
:101830000E940F941C2168461094FEF7C5FC2D4DA4
:101840000794089409944FF080400A942860472038
:10185000C5E9010440F2E730C5E903048020A8612E
:101860002846FFF7DBFC08B1FEF77EFD4FF4805001
:101870000B900BA91F48FFF733FD08B1FEF774FD6D
:101880001C48FFF7F1FE08B1FEF76EFD1948FFF79F
:1018900027FE08B1FEF768FD0F940FA915481094B4
:1018A000FFF788FC08B1FEF75FFD6020CDE900047A
:1018B0000294002269460F480494FFF76FFE08B1B6
:1018C000FEF752FD2868816921F00801816101203D
:1018D000CDE907400994042207A906480A94FFF7B6
:1018E0006DFD08B1FEF740FD0248FFF727FE11B07D
:1018F00030BD000044000020FEE7FEE7704770475F
:10190000FFF796B830B593B028216846FEF75CFC27
:1019100014210AA8FEF758FC002501200F95109508
:101920001195010412958DE8230004904FF4E01006
:10193000CDE90810022407946846FFF797FA08B12A
:1019400072B6FEE70AA90F2081E831004FF48060EB
:10195000CDE90D0502210AA8FFF7BCF908B172B65E
:10196000FEE74FF4004011900F940FA8FFF73CF9E9
:10197000002801D072B6FEE713B030BD70470000FA
:10198000F0B50268194B1A4C1A4D4FF08047984237
:1019900005D0B84203D0A04201D0A84203D122F022
:1019A00070064A683243984205D0B84203D0A0423C
:1019B00001D0A84203D122F44074CA6822434C6982
:1019C00022F08002224302608A68C2620A68826250
:1019D000984201D109690163012141610169C90787
:1019E00003D0016921F001010161F0BD002C01402B
:1019F000000400400008004010B501F01F03012161
:101A0000046A99408C430462016A9A40114301625E
:101A100010BD10B5846842EA032224F47F440A43CF
:101A20002243826010BD826822F070020A4342F0B5
:101A3000070181607047000030B5036A026A22F036
:101A4000010202624268846924F073050C682C4329
:101A500023F002058B682B430A4DA8420BD123F0DB
:101A60000805CB6822F440722B434D6923F0040330
:101A700015438A692A43426084614968416303626D
:101A800030BD0000002C014030B5026A036A23F02B
:101A900010030362436884690D6824F4E64444EA51
:101AA00005248D6822F0200242EA05120B4DA8425F
:101AB0000ED1CD6822F0800242EA05124D6923F46E
:101AC000406343EA85038D6922F0400243EA8503BF
:101AD0004360846149688163026230BD002C01402B
:101AE00030B5036A026A22F4807202624268C469F5
:101AF00023F4007324F073050C682C438D6843EACB
:101B000005230C4DA8420ED1CD6823F4006343EAAF
:101B100005234D6922F4405242EA05128D6923F4EF
:101B2000806342EA05124260C4614968C16303628E
:101B300030BD0000002C014030B5046A026A22F476
:101B4000805202624268C3690D6823F4E64343EAA7
:101B500005238D6824F4005444EA0534064DA84258
:101B600004D14D6922F4804242EA85124260C36189
:101B700049680164046230BD002C014010B5036A5D
:101B8000046A24F001040462846924F0F00444EA45
:101B9000021423F00A020A438461026210BD0000AD
:101BA00070B5056A046A24F00104046284690F4E6A
:101BB000B04208D0B0F1804F05D00D4EB04202D0F7
:101BC0000C4EB04203D124F00304144301E044F06E
:101BD00001041A0724F0F00444EA126225F00A0313
:101BE00001F00A0119438261016270BD002C0140BD
:101BF000000400400008004010B5036A046A24F0A5
:101C000010040462846923F0A00324F4704444EABD
:101C1000023243EA01118261016210BD30B5046AEB
:101C2000056A25F010050562856925F4407545EAC9
:101C3000022222F470454FF6FF7202EA033224F0CA
:101C4000A0032A43A02404EA01111943826101621E
:101C500030BDFEE70907090E002804DB00F1E02093
:101C600080F80014704700F00F0000F1E02080F8C9
:101C7000141D7047FEF7E4FEFFF744FEFFF79AFDE0
:101C8000FFF770FDFFF7CEFD00211348FFF71AFDA7
:101C9000114D124C40F6FF761148FEF741FD0A2126
:101CA0000F48FEF79FFC80B90D48FEF7DDFB80B2C0
:101CB000208040F2E7314843B0FBF6F0A0F2E73075
:101CC000404280B26080296848630548FEF788FD7D
:101CD0006420FEF79FFDDFE74400002000000020A5
:101CE00014000020010202030405060708090A0B7C
:101CF0000C0D0E0F1010010202030405060708095F
:101D00000A0B0C0D0E0F1010000000000000000068
:101D10000102030406070809000000000102030491
:101D2000401D0008000000201400000028010008E9
:101D3000541D000814000020DC06000044010008C7
:101D40000000000001000000100000000000000082
:041D500000127A0003
:04000005080000ED02
:00000001FF
